:020000040000FA
:020000001028C6
:040002000034003492
:08000800A100030EA0008B1CF7
:1000100041283E28200E8300A10E210E8B100900DE
:1000200083160030850005308600C2308100F03034
:100030008B008312850186010130A2002208850011
:10004000E630A40006191E28A40B2228231C2E2803
:10005000A20301302202031923103328A20A093017
:1000600022020319231422088500061D35281E28A4
:1000700086138B100A2886178B100A28861F3B28A8
:100080003828061F4428492806170B11853081009F
:0C0090000A2806130B11853081000A2895
:02400E000200AE
:00000001FF
