:020000040000FA
:020000001C28BA
:040002000034003492
:08000800A100030EA0008B1CF7
:100010000A284A280130050282074D285C286E28EC
:1000200085289D28B128C228D428EA28200E8300DC
:10003000A10E210E8B1009008316003085000530BB
:100040008600C2308100F0308B008312850186016A
:100050000130A20022088500E630A40006192A28F3
:10006000A40B2E28231C3A28A203013022020319D4
:1000700023103F28A20A0930220203192314220860
:100080008500061D41282A2886138B1016288617FE
:100090008B101628861F47284428C0308100061F71
:1000A0005228572806170B11863081001628061390
:1000B0000B118630810016288615C1308316810009
:1000C0008312061F6428692806170B118A308100E5
:1000D000162806130B118A30810016288316C130AA
:1000E00081008312061F75287D2806170B11B43076
:1000F0000000000000008100162806130B11B43028
:1001000000000000000081001628C0308316810026
:100110008312061F8C28952806170B1193300000B8
:100120000000000000008100162806130B11933018
:1001300000000000000081001628C03083168100F6
:100140008312061FA428AA2806170B11AB30000043
:100150008100162806130B11AB300000000081004F
:100160001628C130831681008312061FB828BD28C7
:1001700006170B11DD308100162806130B11DD3038
:1001800081001628C130831681008312061FC928FA
:10019000CF2806170B11E330000081001628061344
:1001A0000B11E33081001628C130831681008312C1
:1001B000061FDB28E32806170B11E83000000000BB
:1001C00000008100162806130B11E8300000000023
:1001D00081001628C130831681008312061FF12882
:1001E000F72806170B11EB300000810016280613C4
:0801F0000B11EB308100162811
:02400E000200AE
:00000001FF
